{
  "transactions": [
    {
      "hash": "0xb76ae5ee7cc11d741a23753b6c3ec3bcb1cd5a0d4b7e01ea583f6c306092875b",
      "transactionType": "CREATE",
      "contractName": "Vanilla721A",
      "contractAddress": "0xa4FdE537ad7706dC9B25d17283Ae907e2a43844c",
      "function": null,
      "arguments": null,
      "rpc": "https://goerli.infura.io/v3/0121168697d541a58680bee17cffdaba",
      "transaction": {
        "type": "0x02",
        "from": "0xf33467a39294fc3881c772b34c57ae1f7dd70249",
        "gas": "0x17301c",
        "value": "0x0",
        "data": "0x60806040523480156200001157600080fd5b5060408051808201825260058152642a37b5b2b760d91b6020808301918252835180850190945260038452622a25a760e91b9084015281519192916200005a916002916200007d565b508051620000709060039060208401906200007d565b5050600080555062000160565b8280546200008b9062000123565b90600052602060002090601f016020900481019282620000af5760008555620000fa565b82601f10620000ca57805160ff1916838001178555620000fa565b82800160010185558215620000fa579182015b82811115620000fa578251825591602001919060010190620000dd565b50620001089291506200010c565b5090565b5b808211156200010857600081556001016200010d565b600181811c908216806200013857607f821691505b602082108114156200015a57634e487b7160e01b600052602260045260246000fd5b50919050565b61133e80620001706000396000f3fe6080604052600436106100f35760003560e01c806370a082311161008a578063a9059cbb11610059578063a9059cbb14610294578063b88d4fde146102a7578063c87b56dd146102c7578063e985e9c5146102e757600080fd5b806370a082311461022c57806395d89b411461024c578063a0712d6814610261578063a22cb4651461027457600080fd5b806318160ddd116100c657806318160ddd146101a957806323b872dd146101cc57806342842e0e146101ec5780636352211e1461020c57600080fd5b806301ffc9a7146100f857806306fdde031461012d578063081812fc1461014f578063095ea7b314610187575b600080fd5b34801561010457600080fd5b50610118610113366004610f78565b610330565b60405190151581526020015b60405180910390f35b34801561013957600080fd5b50610142610382565b6040516101249190610fed565b34801561015b57600080fd5b5061016f61016a366004611000565b610414565b6040516001600160a01b039091168152602001610124565b34801561019357600080fd5b506101a76101a2366004611035565b610458565b005b3480156101b557600080fd5b50600154600054035b604051908152602001610124565b3480156101d857600080fd5b506101a76101e736600461105f565b6104e6565b3480156101f857600080fd5b506101a761020736600461105f565b6104f1565b34801561021857600080fd5b5061016f610227366004611000565b61050c565b34801561023857600080fd5b506101be61024736600461109b565b61051e565b34801561025857600080fd5b5061014261056d565b6101a761026f366004611000565b61057c565b34801561028057600080fd5b506101a761028f3660046110b6565b6105f3565b6101a76102a2366004611035565b610689565b3480156102b357600080fd5b506101a76102c2366004611108565b610698565b3480156102d357600080fd5b506101426102e2366004611000565b6106e9565b3480156102f357600080fd5b506101186103023660046111e4565b6001600160a01b03918216600090815260076020908152604080832093909416825291909152205460ff1690565b60006001600160e01b031982166380ac58cd60e01b148061036157506001600160e01b03198216635b5e139f60e01b145b8061037c57506301ffc9a760e01b6001600160e01b03198316145b92915050565b60606002805461039190611217565b80601f01602080910402602001604051908101604052809291908181526020018280546103bd90611217565b801561040a5780601f106103df5761010080835404028352916020019161040a565b820191906000526020600020905b8154815290600101906020018083116103ed57829003601f168201915b5050505050905090565b600061041f8261077b565b61043c576040516333d1c03960e21b815260040160405180910390fd5b506000908152600660205260409020546001600160a01b031690565b60006104638261050c565b9050806001600160a01b0316836001600160a01b031614156104985760405163250fdee360e21b815260040160405180910390fd5b336001600160a01b038216148015906104b857506104b68133610302565b155b156104d6576040516367d9dca160e11b815260040160405180910390fd5b6104e18383836107a6565b505050565b6104e1838383610802565b6104e183838360405180602001604052806000815250610698565b600061051782610a18565b5192915050565b60006001600160a01b038216610547576040516323d3ad8160e21b815260040160405180910390fd5b506001600160a01b031660009081526005602052604090205467ffffffffffffffff1690565b60606003805461039190611217565b61058e8167011c37937e080000611252565b3410156105d45760405162461bcd60e51b815260206004820152601060248201526f2737ba1032b737bab3b41032ba3432b960811b604482015260640160405180910390fd5b6105f03382604051806020016040528060008152506001610b34565b50565b6001600160a01b03821633141561061d5760405163b06307db60e01b815260040160405180910390fd5b3360008181526007602090815260408083206001600160a01b03871680855290835292819020805460ff191686151590811790915590519081529192917f17307eab39ab6107e8899845ad3d59bd9653f200f220920489ca2b5937696c31910160405180910390a35050565b610694338383610802565b5050565b6106a3848484610802565b6001600160a01b0383163b151580156106c557506106c384848484610d05565b155b156106e3576040516368d2bf6b60e11b815260040160405180910390fd5b50505050565b60606106f48261077b565b61071157604051630a14c4b560e41b815260040160405180910390fd5b600061072860408051602081019091526000815290565b90508051600014156107495760405180602001604052806000815250610774565b8061075384610ded565b60405160200161076492919061127f565b6040516020818303038152906040525b9392505050565b600080548210801561037c575050600090815260046020526040902054600160e01b900460ff161590565b60008281526006602052604080822080546001600160a01b0319166001600160a01b0387811691821790925591518593918516917f8c5be1e5ebec7d5bd14f71427d1e84f3dd0314c0f7b2291e5b200ac8c7c3b92591a4505050565b600061080d82610a18565b80519091506000906001600160a01b0316336001600160a01b0316148061083b5750815161083b9033610302565b8061085657503361084b84610414565b6001600160a01b0316145b90508061087657604051632ce44b5f60e11b815260040160405180910390fd5b846001600160a01b031682600001516001600160a01b0316146108ab5760405162a1148160e81b815260040160405180910390fd5b6001600160a01b0384166108d257604051633a954ecd60e21b815260040160405180910390fd5b6108e260008484600001516107a6565b6001600160a01b038581166000908152600560209081526040808320805467ffffffffffffffff1980821667ffffffffffffffff92831660001901831617909255898616808652838620805493841693831660019081018416949094179055898652600490945282852080546001600160e01b031916909417600160a01b4290921691909102179092559086018083529120549091166109ce576000548110156109ce578251600082815260046020908152604090912080549186015167ffffffffffffffff16600160a01b026001600160e01b03199092166001600160a01b03909316929092171790555b5082846001600160a01b0316866001600160a01b03167fddf252ad1be2c89b69c2b068fc378daa952ba7f163c4a11628f55a4df523b3ef60405160405180910390a45b5050505050565b604080516060810182526000808252602082018190529181019190915281600054811015610b1b57600081815260046020908152604091829020825160608101845290546001600160a01b0381168252600160a01b810467ffffffffffffffff1692820192909252600160e01b90910460ff16151591810182905290610b195780516001600160a01b031615610aaf579392505050565b5060001901600081815260046020908152604091829020825160608101845290546001600160a01b038116808352600160a01b820467ffffffffffffffff1693830193909352600160e01b900460ff1615159281019290925215610b14579392505050565b610aaf565b505b604051636f96cda160e11b815260040160405180910390fd5b6000546001600160a01b038516610b5d57604051622e076360e81b815260040160405180910390fd5b83610b7b5760405163b562e8dd60e01b815260040160405180910390fd5b6001600160a01b038516600081815260056020908152604080832080546fffffffffffffffffffffffffffffffff19811667ffffffffffffffff8083168c0181169182176801000000000000000067ffffffffffffffff1990941690921783900481168c01811690920217909155858452600490925290912080546001600160e01b031916909217600160a01b429092169190910217905580808501838015610c2d57506001600160a01b0387163b15155b15610cb6575b60405182906001600160a01b038916906000907fddf252ad1be2c89b69c2b068fc378daa952ba7f163c4a11628f55a4df523b3ef908290a4610c7e6000888480600101955088610d05565b610c9b576040516368d2bf6b60e11b815260040160405180910390fd5b80821415610c33578260005414610cb157600080fd5b610cfc565b5b6040516001830192906001600160a01b038916906000907fddf252ad1be2c89b69c2b068fc378daa952ba7f163c4a11628f55a4df523b3ef908290a480821415610cb7575b50600055610a11565b604051630a85bd0160e11b81526000906001600160a01b0385169063150b7a0290610d3a9033908990889088906004016112ae565b6020604051808303816000875af1925050508015610d75575060408051601f3d908101601f19168201909252610d72918101906112eb565b60015b610dd0573d808015610da3576040519150601f19603f3d011682016040523d82523d6000602084013e610da8565b606091505b508051610dc8576040516368d2bf6b60e11b815260040160405180910390fd5b805181602001fd5b6001600160e01b031916630a85bd0160e11b149050949350505050565b60606000610dfa83610e8a565b600101905060008167ffffffffffffffff811115610e1a57610e1a6110f2565b6040519080825280601f01601f191660200182016040528015610e44576020820181803683370190505b5090508181016020015b600019016f181899199a1a9b1b9c1cb0b131b232b360811b600a86061a8153600a8504945084610e7d57610e82565b610e4e565b509392505050565b60008072184f03e93ff9f4daa797ed6e38ed64bf6a1f0160401b8310610ec95772184f03e93ff9f4daa797ed6e38ed64bf6a1f0160401b830492506040015b6d04ee2d6d415b85acef81000000008310610ef5576d04ee2d6d415b85acef8100000000830492506020015b662386f26fc100008310610f1357662386f26fc10000830492506010015b6305f5e1008310610f2b576305f5e100830492506008015b6127108310610f3f57612710830492506004015b60648310610f51576064830492506002015b600a831061037c5760010192915050565b6001600160e01b0319811681146105f057600080fd5b600060208284031215610f8a57600080fd5b813561077481610f62565b60005b83811015610fb0578181015183820152602001610f98565b838111156106e35750506000910152565b60008151808452610fd9816020860160208601610f95565b601f01601f19169290920160200192915050565b6020815260006107746020830184610fc1565b60006020828403121561101257600080fd5b5035919050565b80356001600160a01b038116811461103057600080fd5b919050565b6000806040838503121561104857600080fd5b61105183611019565b946020939093013593505050565b60008060006060848603121561107457600080fd5b61107d84611019565b925061108b60208501611019565b9150604084013590509250925092565b6000602082840312156110ad57600080fd5b61077482611019565b600080604083850312156110c957600080fd5b6110d283611019565b9150602083013580151581146110e757600080fd5b809150509250929050565b634e487b7160e01b600052604160045260246000fd5b6000806000806080858703121561111e57600080fd5b61112785611019565b935061113560208601611019565b925060408501359150606085013567ffffffffffffffff8082111561115957600080fd5b818701915087601f83011261116d57600080fd5b81358181111561117f5761117f6110f2565b604051601f8201601f19908116603f011681019083821181831017156111a7576111a76110f2565b816040528281528a60208487010111156111c057600080fd5b82602086016020830137600060208483010152809550505050505092959194509250565b600080604083850312156111f757600080fd5b61120083611019565b915061120e60208401611019565b90509250929050565b600181811c9082168061122b57607f821691505b6020821081141561124c57634e487b7160e01b600052602260045260246000fd5b50919050565b600081600019048311821515161561127a57634e487b7160e01b600052601160045260246000fd5b500290565b60008351611291818460208801610f95565b8351908301906112a5818360208801610f95565b01949350505050565b6001600160a01b03858116825284166020820152604081018390526080606082018190526000906112e190830184610fc1565b9695505050505050565b6000602082840312156112fd57600080fd5b815161077481610f6256fea26469706673582212203e251824abb06d0ceb63c1c6ba75120a2f28099fa1f0dd835f46ebe80d68a4c164736f6c634300080a0033",
        "nonce": "0x26",
        "accessList": []
      },
      "additionalContracts": []
    },
    {
      "hash": "0xe13262a066127b797fda3ddf4e772b48bf33ceec6bb51e2d5d0f75b3c2939e4d",
      "transactionType": "CALL",
      "contractName": "Vanilla721A",
      "contractAddress": "0xa4FdE537ad7706dC9B25d17283Ae907e2a43844c",
      "function": "mint(uint256)",
      "arguments": [
        "10"
      ],
      "rpc": "https://goerli.infura.io/v3/0121168697d541a58680bee17cffdaba",
      "transaction": {
        "type": "0x02",
        "from": "0xf33467a39294fc3881c772b34c57ae1f7dd70249",
        "to": "0xa4fde537ad7706dc9b25d17283ae907e2a43844c",
        "gas": "0x26a48",
        "value": "0xb1a2bc2ec500000",
        "data": "0xa0712d68000000000000000000000000000000000000000000000000000000000000000a",
        "nonce": "0x27",
        "accessList": []
      },
      "additionalContracts": []
    },
    {
      "hash": "0x3381d9406ac085dfb3c3031cf71f2e44d593933a747284d7856f7915a20d6b6d",
      "transactionType": "CALL",
      "contractName": "Vanilla721A",
      "contractAddress": "0xa4FdE537ad7706dC9B25d17283Ae907e2a43844c",
      "function": "transfer(address,uint256)",
      "arguments": [
        "0x000000000000000000000000000000000000dEaD",
        "4"
      ],
      "rpc": "https://goerli.infura.io/v3/0121168697d541a58680bee17cffdaba",
      "transaction": {
        "type": "0x02",
        "from": "0xf33467a39294fc3881c772b34c57ae1f7dd70249",
        "to": "0xa4fde537ad7706dc9b25d17283ae907e2a43844c",
        "gas": "0x25f41",
        "value": "0x0",
        "data": "0xa9059cbb000000000000000000000000000000000000000000000000000000000000dead0000000000000000000000000000000000000000000000000000000000000004",
        "nonce": "0x28",
        "accessList": []
      },
      "additionalContracts": []
    },
    {
      "hash": "0x886452fb08b2c064267357d1fc61dd37e477d42c8f2b32e96a55f47c75d1254a",
      "transactionType": "CALL",
      "contractName": "Vanilla721A",
      "contractAddress": "0xa4FdE537ad7706dC9B25d17283Ae907e2a43844c",
      "function": "transfer(address,uint256)",
      "arguments": [
        "0x000000000000000000000000000000000000dEaD",
        "5"
      ],
      "rpc": "https://goerli.infura.io/v3/0121168697d541a58680bee17cffdaba",
      "transaction": {
        "type": "0x02",
        "from": "0xf33467a39294fc3881c772b34c57ae1f7dd70249",
        "to": "0xa4fde537ad7706dc9b25d17283ae907e2a43844c",
        "gas": "0x18953",
        "value": "0x0",
        "data": "0xa9059cbb000000000000000000000000000000000000000000000000000000000000dead0000000000000000000000000000000000000000000000000000000000000005",
        "nonce": "0x29",
        "accessList": []
      },
      "additionalContracts": []
    },
    {
      "hash": "0xf0862818ea8f1a7dab557a1a30e10260e68a6d9361d1dab2ec420c0e5be6d5b3",
      "transactionType": "CALL",
      "contractName": "Vanilla721A",
      "contractAddress": "0xa4FdE537ad7706dC9B25d17283Ae907e2a43844c",
      "function": "transfer(address,uint256)",
      "arguments": [
        "0x000000000000000000000000000000000000dEaD",
        "6"
      ],
      "rpc": "https://goerli.infura.io/v3/0121168697d541a58680bee17cffdaba",
      "transaction": {
        "type": "0x02",
        "from": "0xf33467a39294fc3881c772b34c57ae1f7dd70249",
        "to": "0xa4fde537ad7706dc9b25d17283ae907e2a43844c",
        "gas": "0x18953",
        "value": "0x0",
        "data": "0xa9059cbb000000000000000000000000000000000000000000000000000000000000dead0000000000000000000000000000000000000000000000000000000000000006",
        "nonce": "0x2a",
        "accessList": []
      },
      "additionalContracts": []
    }
  ],
  "receipts": [
    {
      "transactionHash": "0xb76ae5ee7cc11d741a23753b6c3ec3bcb1cd5a0d4b7e01ea583f6c306092875b",
      "transactionIndex": "0x5",
      "blockHash": "0xdd963e8ece01c4bd457ecb42eae1431f6340ff7f05568c0b59ac209d2afe0eae",
      "blockNumber": "0x835774",
      "from": "0xF33467A39294fC3881c772B34c57Ae1f7dD70249",
      "to": null,
      "cumulativeGasUsed": "0x20b9d6",
      "gasUsed": "0x11d63d",
      "contractAddress": "0xa4FdE537ad7706dC9B25d17283Ae907e2a43844c",
      "logs": [],
      "status": "0x1",
      "logsBloom": "0x00000000000000000000000000000000000000000000000000000000000000000000000000000000000000000000000000000000000000000000000000000000000000000000000000000000000000000000000000000000000000000000000000000000000000000000000000000000000000000000000000000000000000000000000000000000000000000000000000000000000000000000000000000000000000000000000000000000000000000000000000000000000000000000000000000000000000000000000000000000000000000000000000000000000000000000000000000000000000000000000000000000000000000000000000000000",
      "type": "0x2",
      "effectiveGasPrice": "0x689bd0617"
    },
    {
      "transactionHash": "0xe13262a066127b797fda3ddf4e772b48bf33ceec6bb51e2d5d0f75b3c2939e4d",
      "transactionIndex": "0x6",
      "blockHash": "0xdd963e8ece01c4bd457ecb42eae1431f6340ff7f05568c0b59ac209d2afe0eae",
      "blockNumber": "0x835774",
      "from": "0xF33467A39294fC3881c772B34c57Ae1f7dD70249",
      "to": "0xa4FdE537ad7706dC9B25d17283Ae907e2a43844c",
      "cumulativeGasUsed": "0x226098",
      "gasUsed": "0x1a6c2",
      "contractAddress": null,
      "logs": [
        {
          "address": "0xa4FdE537ad7706dC9B25d17283Ae907e2a43844c",
          "topics": [
            "0xddf252ad1be2c89b69c2b068fc378daa952ba7f163c4a11628f55a4df523b3ef",
            "0x0000000000000000000000000000000000000000000000000000000000000000",
            "0x000000000000000000000000f33467a39294fc3881c772b34c57ae1f7dd70249",
            "0x0000000000000000000000000000000000000000000000000000000000000000"
          ],
          "data": "0x",
          "blockHash": "0xdd963e8ece01c4bd457ecb42eae1431f6340ff7f05568c0b59ac209d2afe0eae",
          "blockNumber": "0x835774",
          "transactionHash": "0xe13262a066127b797fda3ddf4e772b48bf33ceec6bb51e2d5d0f75b3c2939e4d",
          "transactionIndex": "0x6",
          "logIndex": "0xf",
          "removed": false
        },
        {
          "address": "0xa4FdE537ad7706dC9B25d17283Ae907e2a43844c",
          "topics": [
            "0xddf252ad1be2c89b69c2b068fc378daa952ba7f163c4a11628f55a4df523b3ef",
            "0x0000000000000000000000000000000000000000000000000000000000000000",
            "0x000000000000000000000000f33467a39294fc3881c772b34c57ae1f7dd70249",
            "0x0000000000000000000000000000000000000000000000000000000000000001"
          ],
          "data": "0x",
          "blockHash": "0xdd963e8ece01c4bd457ecb42eae1431f6340ff7f05568c0b59ac209d2afe0eae",
          "blockNumber": "0x835774",
          "transactionHash": "0xe13262a066127b797fda3ddf4e772b48bf33ceec6bb51e2d5d0f75b3c2939e4d",
          "transactionIndex": "0x6",
          "logIndex": "0x10",
          "removed": false
        },
        {
          "address": "0xa4FdE537ad7706dC9B25d17283Ae907e2a43844c",
          "topics": [
            "0xddf252ad1be2c89b69c2b068fc378daa952ba7f163c4a11628f55a4df523b3ef",
            "0x0000000000000000000000000000000000000000000000000000000000000000",
            "0x000000000000000000000000f33467a39294fc3881c772b34c57ae1f7dd70249",
            "0x0000000000000000000000000000000000000000000000000000000000000002"
          ],
          "data": "0x",
          "blockHash": "0xdd963e8ece01c4bd457ecb42eae1431f6340ff7f05568c0b59ac209d2afe0eae",
          "blockNumber": "0x835774",
          "transactionHash": "0xe13262a066127b797fda3ddf4e772b48bf33ceec6bb51e2d5d0f75b3c2939e4d",
          "transactionIndex": "0x6",
          "logIndex": "0x11",
          "removed": false
        },
        {
          "address": "0xa4FdE537ad7706dC9B25d17283Ae907e2a43844c",
          "topics": [
            "0xddf252ad1be2c89b69c2b068fc378daa952ba7f163c4a11628f55a4df523b3ef",
            "0x0000000000000000000000000000000000000000000000000000000000000000",
            "0x000000000000000000000000f33467a39294fc3881c772b34c57ae1f7dd70249",
            "0x0000000000000000000000000000000000000000000000000000000000000003"
          ],
          "data": "0x",
          "blockHash": "0xdd963e8ece01c4bd457ecb42eae1431f6340ff7f05568c0b59ac209d2afe0eae",
          "blockNumber": "0x835774",
          "transactionHash": "0xe13262a066127b797fda3ddf4e772b48bf33ceec6bb51e2d5d0f75b3c2939e4d",
          "transactionIndex": "0x6",
          "logIndex": "0x12",
          "removed": false
        },
        {
          "address": "0xa4FdE537ad7706dC9B25d17283Ae907e2a43844c",
          "topics": [
            "0xddf252ad1be2c89b69c2b068fc378daa952ba7f163c4a11628f55a4df523b3ef",
            "0x0000000000000000000000000000000000000000000000000000000000000000",
            "0x000000000000000000000000f33467a39294fc3881c772b34c57ae1f7dd70249",
            "0x0000000000000000000000000000000000000000000000000000000000000004"
          ],
          "data": "0x",
          "blockHash": "0xdd963e8ece01c4bd457ecb42eae1431f6340ff7f05568c0b59ac209d2afe0eae",
          "blockNumber": "0x835774",
          "transactionHash": "0xe13262a066127b797fda3ddf4e772b48bf33ceec6bb51e2d5d0f75b3c2939e4d",
          "transactionIndex": "0x6",
          "logIndex": "0x13",
          "removed": false
        },
        {
          "address": "0xa4FdE537ad7706dC9B25d17283Ae907e2a43844c",
          "topics": [
            "0xddf252ad1be2c89b69c2b068fc378daa952ba7f163c4a11628f55a4df523b3ef",
            "0x0000000000000000000000000000000000000000000000000000000000000000",
            "0x000000000000000000000000f33467a39294fc3881c772b34c57ae1f7dd70249",
            "0x0000000000000000000000000000000000000000000000000000000000000005"
          ],
          "data": "0x",
          "blockHash": "0xdd963e8ece01c4bd457ecb42eae1431f6340ff7f05568c0b59ac209d2afe0eae",
          "blockNumber": "0x835774",
          "transactionHash": "0xe13262a066127b797fda3ddf4e772b48bf33ceec6bb51e2d5d0f75b3c2939e4d",
          "transactionIndex": "0x6",
          "logIndex": "0x14",
          "removed": false
        },
        {
          "address": "0xa4FdE537ad7706dC9B25d17283Ae907e2a43844c",
          "topics": [
            "0xddf252ad1be2c89b69c2b068fc378daa952ba7f163c4a11628f55a4df523b3ef",
            "0x0000000000000000000000000000000000000000000000000000000000000000",
            "0x000000000000000000000000f33467a39294fc3881c772b34c57ae1f7dd70249",
            "0x0000000000000000000000000000000000000000000000000000000000000006"
          ],
          "data": "0x",
          "blockHash": "0xdd963e8ece01c4bd457ecb42eae1431f6340ff7f05568c0b59ac209d2afe0eae",
          "blockNumber": "0x835774",
          "transactionHash": "0xe13262a066127b797fda3ddf4e772b48bf33ceec6bb51e2d5d0f75b3c2939e4d",
          "transactionIndex": "0x6",
          "logIndex": "0x15",
          "removed": false
        },
        {
          "address": "0xa4FdE537ad7706dC9B25d17283Ae907e2a43844c",
          "topics": [
            "0xddf252ad1be2c89b69c2b068fc378daa952ba7f163c4a11628f55a4df523b3ef",
            "0x0000000000000000000000000000000000000000000000000000000000000000",
            "0x000000000000000000000000f33467a39294fc3881c772b34c57ae1f7dd70249",
            "0x0000000000000000000000000000000000000000000000000000000000000007"
          ],
          "data": "0x",
          "blockHash": "0xdd963e8ece01c4bd457ecb42eae1431f6340ff7f05568c0b59ac209d2afe0eae",
          "blockNumber": "0x835774",
          "transactionHash": "0xe13262a066127b797fda3ddf4e772b48bf33ceec6bb51e2d5d0f75b3c2939e4d",
          "transactionIndex": "0x6",
          "logIndex": "0x16",
          "removed": false
        },
        {
          "address": "0xa4FdE537ad7706dC9B25d17283Ae907e2a43844c",
          "topics": [
            "0xddf252ad1be2c89b69c2b068fc378daa952ba7f163c4a11628f55a4df523b3ef",
            "0x0000000000000000000000000000000000000000000000000000000000000000",
            "0x000000000000000000000000f33467a39294fc3881c772b34c57ae1f7dd70249",
            "0x0000000000000000000000000000000000000000000000000000000000000008"
          ],
          "data": "0x",
          "blockHash": "0xdd963e8ece01c4bd457ecb42eae1431f6340ff7f05568c0b59ac209d2afe0eae",
          "blockNumber": "0x835774",
          "transactionHash": "0xe13262a066127b797fda3ddf4e772b48bf33ceec6bb51e2d5d0f75b3c2939e4d",
          "transactionIndex": "0x6",
          "logIndex": "0x17",
          "removed": false
        },
        {
          "address": "0xa4FdE537ad7706dC9B25d17283Ae907e2a43844c",
          "topics": [
            "0xddf252ad1be2c89b69c2b068fc378daa952ba7f163c4a11628f55a4df523b3ef",
            "0x0000000000000000000000000000000000000000000000000000000000000000",
            "0x000000000000000000000000f33467a39294fc3881c772b34c57ae1f7dd70249",
            "0x0000000000000000000000000000000000000000000000000000000000000009"
          ],
          "data": "0x",
          "blockHash": "0xdd963e8ece01c4bd457ecb42eae1431f6340ff7f05568c0b59ac209d2afe0eae",
          "blockNumber": "0x835774",
          "transactionHash": "0xe13262a066127b797fda3ddf4e772b48bf33ceec6bb51e2d5d0f75b3c2939e4d",
          "transactionIndex": "0x6",
          "logIndex": "0x18",
          "removed": false
        }
      ],
      "status": "0x1",
      "logsBloom": "0x04000000000000000000000000000000000000000000000040000000000002000000000000000000000000000000000000001000020480000000000000240000000030000000080000000008000000000000000000040000000000000000000008000000020000000000000000000800000000000000000000000010000000000080000400000000000000000000001000001800000000000000000000000020000000000000000000000100000080000000000000800000002000080000400040000002000000000000000000000000000000008000000000000100000060000000000000000000000000000000000000000000008000000000000001800000",
      "type": "0x2",
      "effectiveGasPrice": "0x689bd0617"
    },
    {
      "transactionHash": "0x3381d9406ac085dfb3c3031cf71f2e44d593933a747284d7856f7915a20d6b6d",
      "transactionIndex": "0x7",
      "blockHash": "0xdd963e8ece01c4bd457ecb42eae1431f6340ff7f05568c0b59ac209d2afe0eae",
      "blockNumber": "0x835774",
      "from": "0xF33467A39294fC3881c772B34c57Ae1f7dD70249",
      "to": "0xa4FdE537ad7706dC9B25d17283Ae907e2a43844c",
      "cumulativeGasUsed": "0x24183d",
      "gasUsed": "0x1b7a5",
      "contractAddress": null,
      "logs": [
        {
          "address": "0xa4FdE537ad7706dC9B25d17283Ae907e2a43844c",
          "topics": [
            "0x8c5be1e5ebec7d5bd14f71427d1e84f3dd0314c0f7b2291e5b200ac8c7c3b925",
            "0x000000000000000000000000f33467a39294fc3881c772b34c57ae1f7dd70249",
            "0x0000000000000000000000000000000000000000000000000000000000000000",
            "0x0000000000000000000000000000000000000000000000000000000000000004"
          ],
          "data": "0x",
          "blockHash": "0xdd963e8ece01c4bd457ecb42eae1431f6340ff7f05568c0b59ac209d2afe0eae",
          "blockNumber": "0x835774",
          "transactionHash": "0x3381d9406ac085dfb3c3031cf71f2e44d593933a747284d7856f7915a20d6b6d",
          "transactionIndex": "0x7",
          "logIndex": "0x19",
          "removed": false
        },
        {
          "address": "0xa4FdE537ad7706dC9B25d17283Ae907e2a43844c",
          "topics": [
            "0xddf252ad1be2c89b69c2b068fc378daa952ba7f163c4a11628f55a4df523b3ef",
            "0x000000000000000000000000f33467a39294fc3881c772b34c57ae1f7dd70249",
            "0x000000000000000000000000000000000000000000000000000000000000dead",
            "0x0000000000000000000000000000000000000000000000000000000000000004"
          ],
          "data": "0x",
          "blockHash": "0xdd963e8ece01c4bd457ecb42eae1431f6340ff7f05568c0b59ac209d2afe0eae",
          "blockNumber": "0x835774",
          "transactionHash": "0x3381d9406ac085dfb3c3031cf71f2e44d593933a747284d7856f7915a20d6b6d",
          "transactionIndex": "0x7",
          "logIndex": "0x1a",
          "removed": false
        }
      ],
      "status": "0x1",
      "logsBloom": "0x00000000000010000000000000000000000000000000000040000000000002000000000000000000000000000000000000000000000000000000000000200000000000000000080000000008000000000000000000000000000000000000000008000000020000000000000000000800000000000000000000000010000000000000000000000000000004000000000000000000000000000000000000000020020000000000000000000000000080000000000000000000002000000000000000000402000000000000000000000000000000008000000000000000000020000010000000000000000000000000000000000000000000000000000001000000",
      "type": "0x2",
      "effectiveGasPrice": "0x689bd0617"
    },
    {
      "transactionHash": "0x886452fb08b2c064267357d1fc61dd37e477d42c8f2b32e96a55f47c75d1254a",
      "transactionIndex": "0x8",
      "blockHash": "0xdd963e8ece01c4bd457ecb42eae1431f6340ff7f05568c0b59ac209d2afe0eae",
      "blockNumber": "0x835774",
      "from": "0xF33467A39294fC3881c772B34c57Ae1f7dD70249",
      "to": "0xa4FdE537ad7706dC9B25d17283Ae907e2a43844c",
      "cumulativeGasUsed": "0x25252e",
      "gasUsed": "0x10cf1",
      "contractAddress": null,
      "logs": [
        {
          "address": "0xa4FdE537ad7706dC9B25d17283Ae907e2a43844c",
          "topics": [
            "0x8c5be1e5ebec7d5bd14f71427d1e84f3dd0314c0f7b2291e5b200ac8c7c3b925",
            "0x000000000000000000000000f33467a39294fc3881c772b34c57ae1f7dd70249",
            "0x0000000000000000000000000000000000000000000000000000000000000000",
            "0x0000000000000000000000000000000000000000000000000000000000000005"
          ],
          "data": "0x",
          "blockHash": "0xdd963e8ece01c4bd457ecb42eae1431f6340ff7f05568c0b59ac209d2afe0eae",
          "blockNumber": "0x835774",
          "transactionHash": "0x886452fb08b2c064267357d1fc61dd37e477d42c8f2b32e96a55f47c75d1254a",
          "transactionIndex": "0x8",
          "logIndex": "0x1b",
          "removed": false
        },
        {
          "address": "0xa4FdE537ad7706dC9B25d17283Ae907e2a43844c",
          "topics": [
            "0xddf252ad1be2c89b69c2b068fc378daa952ba7f163c4a11628f55a4df523b3ef",
            "0x000000000000000000000000f33467a39294fc3881c772b34c57ae1f7dd70249",
            "0x000000000000000000000000000000000000000000000000000000000000dead",
            "0x0000000000000000000000000000000000000000000000000000000000000005"
          ],
          "data": "0x",
          "blockHash": "0xdd963e8ece01c4bd457ecb42eae1431f6340ff7f05568c0b59ac209d2afe0eae",
          "blockNumber": "0x835774",
          "transactionHash": "0x886452fb08b2c064267357d1fc61dd37e477d42c8f2b32e96a55f47c75d1254a",
          "transactionIndex": "0x8",
          "logIndex": "0x1c",
          "removed": false
        }
      ],
      "status": "0x1",
      "logsBloom": "0x00000000000010000000000000000000000000000000000040000000000002000000000000000000000000000000000000000000000000000000000000200000000010000000080000000008000000000000000000000000000000000000000000000000020000000000000000000800000000000000000000000010000000000000000000000000000004000000001000000800000000000000000000000020020000000000000000000000000080000000000000000000000000000000000000000402000000000000000000000000000000000000000000000000000020000010000000000000000000000000000000000000000000000000000001000000",
      "type": "0x2",
      "effectiveGasPrice": "0x689bd0617"
    },
    {
      "transactionHash": "0xf0862818ea8f1a7dab557a1a30e10260e68a6d9361d1dab2ec420c0e5be6d5b3",
      "transactionIndex": "0x9",
      "blockHash": "0xdd963e8ece01c4bd457ecb42eae1431f6340ff7f05568c0b59ac209d2afe0eae",
      "blockNumber": "0x835774",
      "from": "0xF33467A39294fC3881c772B34c57Ae1f7dD70249",
      "to": "0xa4FdE537ad7706dC9B25d17283Ae907e2a43844c",
      "cumulativeGasUsed": "0x26321f",
      "gasUsed": "0x10cf1",
      "contractAddress": null,
      "logs": [
        {
          "address": "0xa4FdE537ad7706dC9B25d17283Ae907e2a43844c",
          "topics": [
            "0x8c5be1e5ebec7d5bd14f71427d1e84f3dd0314c0f7b2291e5b200ac8c7c3b925",
            "0x000000000000000000000000f33467a39294fc3881c772b34c57ae1f7dd70249",
            "0x0000000000000000000000000000000000000000000000000000000000000000",
            "0x0000000000000000000000000000000000000000000000000000000000000006"
          ],
          "data": "0x",
          "blockHash": "0xdd963e8ece01c4bd457ecb42eae1431f6340ff7f05568c0b59ac209d2afe0eae",
          "blockNumber": "0x835774",
          "transactionHash": "0xf0862818ea8f1a7dab557a1a30e10260e68a6d9361d1dab2ec420c0e5be6d5b3",
          "transactionIndex": "0x9",
          "logIndex": "0x1d",
          "removed": false
        },
        {
          "address": "0xa4FdE537ad7706dC9B25d17283Ae907e2a43844c",
          "topics": [
            "0xddf252ad1be2c89b69c2b068fc378daa952ba7f163c4a11628f55a4df523b3ef",
            "0x000000000000000000000000f33467a39294fc3881c772b34c57ae1f7dd70249",
            "0x000000000000000000000000000000000000000000000000000000000000dead",
            "0x0000000000000000000000000000000000000000000000000000000000000006"
          ],
          "data": "0x",
          "blockHash": "0xdd963e8ece01c4bd457ecb42eae1431f6340ff7f05568c0b59ac209d2afe0eae",
          "blockNumber": "0x835774",
          "transactionHash": "0xf0862818ea8f1a7dab557a1a30e10260e68a6d9361d1dab2ec420c0e5be6d5b3",
          "transactionIndex": "0x9",
          "logIndex": "0x1e",
          "removed": false
        }
      ],
      "status": "0x1",
      "logsBloom": "0x00000000000010000000000000000000000000000000000040000000000002000000000000000000000000000000000000000000000400000000000000200000000000000000080000000008000000000000000000000000000000000000000000000000020000000000000000000800000000000000000000000010000000000000000400000000000004000000000000000000000000000000000000000020020000000000000000000000000080000000000000000000000000080000000000000402000000000000000000000000000000000000000000000000000020000010000000000000000000000000000000000000000000000000000001000000",
      "type": "0x2",
      "effectiveGasPrice": "0x689bd0617"
    }
  ],
  "libraries": [],
  "pending": [],
  "path": "/Users/mohammedkhalil/Desktop/Year 3 Uni/Project/NewFoundry/broadcast/VanillaERC721A.s.sol/5/run-latest.json",
  "returns": {},
  "timestamp": 1678112296,
  "chain": 5,
  "multi": false,
  "commit": "0b1f1f4"
}